{
  "contractName": "SunmaitCrowdsale",
  "abi": [
    {
      "constant": true,
      "inputs": [],
      "name": "phase1weiRaised",
      "outputs": [
        {
          "name": "",
          "type": "uint256"
        }
      ],
      "payable": false,
      "stateMutability": "view",
      "type": "function"
    },
    {
      "constant": true,
      "inputs": [],
      "name": "phase2ClosingTime",
      "outputs": [
        {
          "name": "",
          "type": "uint256"
        }
      ],
      "payable": false,
      "stateMutability": "view",
      "type": "function"
    },
    {
      "constant": true,
      "inputs": [],
      "name": "phase2OpeningTime",
      "outputs": [
        {
          "name": "",
          "type": "uint256"
        }
      ],
      "payable": false,
      "stateMutability": "view",
      "type": "function"
    },
    {
      "constant": true,
      "inputs": [],
      "name": "wallet",
      "outputs": [
        {
          "name": "",
          "type": "address"
        }
      ],
      "payable": false,
      "stateMutability": "view",
      "type": "function"
    },
    {
      "constant": true,
      "inputs": [],
      "name": "tokenReward",
      "outputs": [
        {
          "name": "",
          "type": "address"
        }
      ],
      "payable": false,
      "stateMutability": "view",
      "type": "function"
    },
    {
      "constant": false,
      "inputs": [],
      "name": "renounceOwnership",
      "outputs": [],
      "payable": false,
      "stateMutability": "nonpayable",
      "type": "function"
    },
    {
      "constant": true,
      "inputs": [],
      "name": "owner",
      "outputs": [
        {
          "name": "",
          "type": "address"
        }
      ],
      "payable": false,
      "stateMutability": "view",
      "type": "function"
    },
    {
      "constant": true,
      "inputs": [],
      "name": "phase1OpeningTime",
      "outputs": [
        {
          "name": "",
          "type": "uint256"
        }
      ],
      "payable": false,
      "stateMutability": "view",
      "type": "function"
    },
    {
      "constant": true,
      "inputs": [],
      "name": "phase1ClosingTime",
      "outputs": [
        {
          "name": "",
          "type": "uint256"
        }
      ],
      "payable": false,
      "stateMutability": "view",
      "type": "function"
    },
    {
      "constant": true,
      "inputs": [],
      "name": "PHASE1_RATE",
      "outputs": [
        {
          "name": "",
          "type": "uint256"
        }
      ],
      "payable": false,
      "stateMutability": "view",
      "type": "function"
    },
    {
      "constant": true,
      "inputs": [],
      "name": "PHASE2_RATE",
      "outputs": [
        {
          "name": "",
          "type": "uint256"
        }
      ],
      "payable": false,
      "stateMutability": "view",
      "type": "function"
    },
    {
      "constant": true,
      "inputs": [],
      "name": "totalRaised",
      "outputs": [
        {
          "name": "",
          "type": "uint256"
        }
      ],
      "payable": false,
      "stateMutability": "view",
      "type": "function"
    },
    {
      "constant": false,
      "inputs": [
        {
          "name": "_newOwner",
          "type": "address"
        }
      ],
      "name": "transferOwnership",
      "outputs": [],
      "payable": false,
      "stateMutability": "nonpayable",
      "type": "function"
    },
    {
      "constant": true,
      "inputs": [],
      "name": "phase2weiRaised",
      "outputs": [
        {
          "name": "",
          "type": "uint256"
        }
      ],
      "payable": false,
      "stateMutability": "view",
      "type": "function"
    },
    {
      "inputs": [
        {
          "name": "tokenRewardAddress",
          "type": "address"
        },
        {
          "name": "walletAddress",
          "type": "address"
        },
        {
          "name": "phase1StartTime",
          "type": "uint256"
        },
        {
          "name": "phase1DurationInDays",
          "type": "uint256"
        },
        {
          "name": "phase2DurationInDays",
          "type": "uint256"
        }
      ],
      "payable": false,
      "stateMutability": "nonpayable",
      "type": "constructor"
    },
    {
      "payable": true,
      "stateMutability": "payable",
      "type": "fallback"
    },
    {
      "anonymous": false,
      "inputs": [
        {
          "indexed": false,
          "name": "purchaser",
          "type": "address"
        },
        {
          "indexed": false,
          "name": "ethValue",
          "type": "uint256"
        },
        {
          "indexed": false,
          "name": "tokenAmount",
          "type": "uint256"
        }
      ],
      "name": "TokenPurchase",
      "type": "event"
    },
    {
      "anonymous": false,
      "inputs": [
        {
          "indexed": true,
          "name": "previousOwner",
          "type": "address"
        }
      ],
      "name": "OwnershipRenounced",
      "type": "event"
    },
    {
      "anonymous": false,
      "inputs": [
        {
          "indexed": true,
          "name": "previousOwner",
          "type": "address"
        },
        {
          "indexed": true,
          "name": "newOwner",
          "type": "address"
        }
      ],
      "name": "OwnershipTransferred",
      "type": "event"
    },
    {
      "constant": true,
      "inputs": [],
      "name": "getCurrentState",
      "outputs": [
        {
          "name": "",
          "type": "uint8"
        }
      ],
      "payable": false,
      "stateMutability": "view",
      "type": "function"
    },
    {
      "constant": true,
      "inputs": [],
      "name": "getIcoStartTime",
      "outputs": [
        {
          "name": "",
          "type": "uint256"
        }
      ],
      "payable": false,
      "stateMutability": "view",
      "type": "function"
    },
    {
      "constant": true,
      "inputs": [],
      "name": "getIcoEndTime",
      "outputs": [
        {
          "name": "",
          "type": "uint256"
        }
      ],
      "payable": false,
      "stateMutability": "view",
      "type": "function"
    }
  ],
  "bytecode": "0x608060405260016002556001600355600060045534801561001f57600080fd5b5060405160a080610dd38339810180604052810190808051906020019092919080519060200190929190805190602001909291908051906020019092919080519060200190929190505050336000806101000a81548173ffffffffffffffffffffffffffffffffffffffff021916908373ffffffffffffffffffffffffffffffffffffffff160217905550600073ffffffffffffffffffffffffffffffffffffffff168573ffffffffffffffffffffffffffffffffffffffff16141515156100e657600080fd5b600073ffffffffffffffffffffffffffffffffffffffff168473ffffffffffffffffffffffffffffffffffffffff161415151561012257600080fd5b84600160006101000a81548173ffffffffffffffffffffffffffffffffffffffff021916908373ffffffffffffffffffffffffffffffffffffffff16021790555083600960006101000a81548173ffffffffffffffffffffffffffffffffffffffff021916908373ffffffffffffffffffffffffffffffffffffffff160217905550826005819055506101d5603c8060188502020260055461021e64010000000002610824179091906401000000009004565b60068190555060065460078190555061020e603c8060188402020260075461021e64010000000002610824179091906401000000009004565b600881905550505050505061023a565b6000818301905082811015151561023157fe5b80905092915050565b610b8a806102496000396000f3006080604052600436106100f1576000357c0100000000000000000000000000000000000000000000000000000000900463ffffffff168063043b0e58146103b75780631024b6fa146103e25780632b87fba21461040d578063378aa70114610438578063521eb273146104715780636e66f6e9146104c8578063715018a61461051f5780638da5cb5b1461053657806392c311841461058d578063a1c2bc64146105b8578063ac4282d9146105e3578063b20c0e431461060e578063b7ca21ce14610639578063b8782d4914610664578063c5c4744c1461068f578063f2fde38b146106ba578063f92ea346146106fd575b6000806000349250610101610728565b915061010e338484610775565b600090506001600281111561011f57fe5b82600281111561012b57fe5b1415610168576101466107d0846107ec90919063ffffffff16565b905061015d8360025461082490919063ffffffff16565b6002819055506101ba565b60028081111561017457fe5b82600281111561018057fe5b14156101b95761019b6105dc846107ec90919063ffffffff16565b90506101b28360035461082490919063ffffffff16565b6003819055505b5b6101cf8360045461082490919063ffffffff16565b600481905550600160009054906101000a900473ffffffffffffffffffffffffffffffffffffffff1673ffffffffffffffffffffffffffffffffffffffff16631109ef9233836040518363ffffffff167c0100000000000000000000000000000000000000000000000000000000028152600401808373ffffffffffffffffffffffffffffffffffffffff1673ffffffffffffffffffffffffffffffffffffffff16815260200182815260200192505050602060405180830381600087803b15801561029a57600080fd5b505af11580156102ae573d6000803e3d6000fd5b505050506040513d60208110156102c457600080fd5b810190808051906020019092919050505050600960009054906101000a900473ffffffffffffffffffffffffffffffffffffffff1673ffffffffffffffffffffffffffffffffffffffff166108fc349081150290604051600060405180830381858888f1935050505015801561033e573d6000803e3d6000fd5b507fcd60aa75dea3072fbc07ae6d7d856b5dc5f4eee88854f5b4abf7b680ef8bc50f333483604051808473ffffffffffffffffffffffffffffffffffffffff1673ffffffffffffffffffffffffffffffffffffffff168152602001838152602001828152602001935050505060405180910390a1505050005b3480156103c357600080fd5b506103cc610840565b6040518082815260200191505060405180910390f35b3480156103ee57600080fd5b506103f7610846565b6040518082815260200191505060405180910390f35b34801561041957600080fd5b5061042261084c565b6040518082815260200191505060405180910390f35b34801561044457600080fd5b5061044d610728565b6040518082600281111561045d57fe5b60ff16815260200191505060405180910390f35b34801561047d57600080fd5b50610486610852565b604051808273ffffffffffffffffffffffffffffffffffffffff1673ffffffffffffffffffffffffffffffffffffffff16815260200191505060405180910390f35b3480156104d457600080fd5b506104dd610878565b604051808273ffffffffffffffffffffffffffffffffffffffff1673ffffffffffffffffffffffffffffffffffffffff16815260200191505060405180910390f35b34801561052b57600080fd5b5061053461089e565b005b34801561054257600080fd5b5061054b6109a0565b604051808273ffffffffffffffffffffffffffffffffffffffff1673ffffffffffffffffffffffffffffffffffffffff16815260200191505060405180910390f35b34801561059957600080fd5b506105a26109c5565b6040518082815260200191505060405180910390f35b3480156105c457600080fd5b506105cd6109cb565b6040518082815260200191505060405180910390f35b3480156105ef57600080fd5b506105f86109d1565b6040518082815260200191505060405180910390f35b34801561061a57600080fd5b506106236109db565b6040518082815260200191505060405180910390f35b34801561064557600080fd5b5061064e6109e1565b6040518082815260200191505060405180910390f35b34801561067057600080fd5b506106796109eb565b6040518082815260200191505060405180910390f35b34801561069b57600080fd5b506106a46109f1565b6040518082815260200191505060405180910390f35b3480156106c657600080fd5b506106fb600480360381019080803573ffffffffffffffffffffffffffffffffffffffff1690602001909291905050506109f7565b005b34801561070957600080fd5b50610712610a5e565b6040518082815260200191505060405180910390f35b600080600090506005544210158015610742575060065442105b15610750576001905061076e565b6007544210158015610763575060085442105b1561076d57600290505b5b8091505090565b600073ffffffffffffffffffffffffffffffffffffffff168373ffffffffffffffffffffffffffffffffffffffff16141515156107b157600080fd5b600082141515156107c157600080fd5b600060028111156107ce57fe5b8160028111156107da57fe5b141515156107e757600080fd5b505050565b6000808314156107ff576000905061081e565b818302905081838281151561081057fe5b0414151561081a57fe5b8090505b92915050565b6000818301905082811015151561083757fe5b80905092915050565b60025481565b60085481565b60075481565b600960009054906101000a900473ffffffffffffffffffffffffffffffffffffffff1681565b600160009054906101000a900473ffffffffffffffffffffffffffffffffffffffff1681565b6000809054906101000a900473ffffffffffffffffffffffffffffffffffffffff1673ffffffffffffffffffffffffffffffffffffffff163373ffffffffffffffffffffffffffffffffffffffff161415156108f957600080fd5b6000809054906101000a900473ffffffffffffffffffffffffffffffffffffffff1673ffffffffffffffffffffffffffffffffffffffff167ff8df31144d9c2f0f6b59d69b8b98abd5459d07f2742c4df920b25aae33c6482060405160405180910390a260008060006101000a81548173ffffffffffffffffffffffffffffffffffffffff021916908373ffffffffffffffffffffffffffffffffffffffff160217905550565b6000809054906101000a900473ffffffffffffffffffffffffffffffffffffffff1681565b60055481565b60065481565b6000600554905090565b6107d081565b6000600854905090565b6105dc81565b60045481565b6000809054906101000a900473ffffffffffffffffffffffffffffffffffffffff1673ffffffffffffffffffffffffffffffffffffffff163373ffffffffffffffffffffffffffffffffffffffff16141515610a5257600080fd5b610a5b81610a64565b50565b60035481565b600073ffffffffffffffffffffffffffffffffffffffff168173ffffffffffffffffffffffffffffffffffffffff1614151515610aa057600080fd5b8073ffffffffffffffffffffffffffffffffffffffff166000809054906101000a900473ffffffffffffffffffffffffffffffffffffffff1673ffffffffffffffffffffffffffffffffffffffff167f8be0079c531659141344cd1fd0a4f28419497f9722a3daafe3b4186f6b6457e060405160405180910390a3806000806101000a81548173ffffffffffffffffffffffffffffffffffffffff021916908373ffffffffffffffffffffffffffffffffffffffff160217905550505600a165627a7a72305820dff85637e276ad30f31818168950a938293c7f441993cbe66fa9f0ab60a415940029",
  "source": "pragma solidity ^0.4.23;\n\nimport \"openzeppelin-solidity/contracts/ownership/Ownable.sol\";\nimport \"openzeppelin-solidity/contracts/math/SafeMath.sol\";\nimport \"./SunmaitToken.sol\";\n\ncontract SunmaitCrowdsale is Ownable {\n    using SafeMath for uint256;\n    \n    enum State { NotRunning, Phase1, Phase2 }\n\n    SunmaitToken public tokenReward;\n\n    uint256 public phase1weiRaised = 1;\n    uint256 public phase2weiRaised = 1;\n    uint256 public totalRaised = 0;\n\n    uint256 public phase1OpeningTime;\n    uint256 public phase1ClosingTime;\n    uint256 public phase2OpeningTime;\n    uint256 public phase2ClosingTime;\n\n    address public wallet;\n\n    uint256 public constant PHASE1_RATE = 2000;\n    uint256 public constant PHASE2_RATE = 1500;\n\n    event TokenPurchase(address purchaser, uint256 ethValue, uint256 tokenAmount);\n\n    constructor (\n        address tokenRewardAddress,\n        address walletAddress,\n        uint256 phase1StartTime,\n        uint256 phase1DurationInDays,\n        uint256 phase2DurationInDays)\n    public {\n        require(tokenRewardAddress != address(0));\n        require(walletAddress != address(0));\n\n        tokenReward = SunmaitToken(tokenRewardAddress);\n        wallet = walletAddress;\n\n        phase1OpeningTime = phase1StartTime; //firsht phase start time (in seconds)\n        phase1ClosingTime = phase1OpeningTime.add(phase1DurationInDays * 24 * 60 * 60); //first phase duration (in seconds)\n\n        phase2OpeningTime = phase1ClosingTime; // second phase starts immediatly after closing time of first phase\n        phase2ClosingTime = phase2OpeningTime.add(phase2DurationInDays * 24 * 60 * 60); // Total duration (in seconds)\n    }\n\n    function () external payable {\n        uint256 weiAmount = msg.value;\n        State currentState = getCurrentState();\n\n        _validatePurchase(msg.sender, weiAmount, currentState);\n\n        uint256 tokenAmount = 0;\n        if (currentState == State.Phase1) {\n            tokenAmount = weiAmount.mul(PHASE1_RATE);\n            phase1weiRaised = phase1weiRaised.add(weiAmount);\n        }\n        else if (currentState == State.Phase2) {\n            tokenAmount = weiAmount.mul(PHASE2_RATE);\n            phase2weiRaised = phase2weiRaised.add(weiAmount);\n        }\n\n        totalRaised = totalRaised.add(weiAmount);\n\n        tokenReward.transferFromCrowdsale(msg.sender, tokenAmount);\n        wallet.transfer(msg.value);\n\n        emit TokenPurchase(msg.sender, msg.value, tokenAmount);\n    }\n\n    function getCurrentState() public view returns(State) {\n        State currentState = State.NotRunning;\n\n        if (now >= phase1OpeningTime && now < phase1ClosingTime) {\n            currentState = State.Phase1;\n        }\n        else if (now >= phase2OpeningTime && now < phase2ClosingTime) {\n            currentState = State.Phase2;\n        }\n\n        return currentState;\n    }\n\n    function _validatePurchase(address beneficiary, uint256 weiAmount, State currentState) internal view {\n        require(beneficiary != address(0));\n        require(weiAmount != 0);\n        require(currentState != State.NotRunning);\n    }\n\n    function getIcoStartTime() public view returns(uint256) {\n        return phase1OpeningTime;\n    }\n\n    function getIcoEndTime() public view returns(uint256) {\n        return phase2ClosingTime;\n    }\n}",
  "sourcePath": "/home/work-station/Work/pashka/ico/ethereum/contracts/SunmaitCrowdsale.sol",
  "compiler": {
    "name": "solc",
    "version": "0.4.24+commit.e67f0147.Emscripten.clang"
  },
  "schemaVersion": "2.0.1",
  "updatedAt": "2018-10-15T05:42:04.216Z"
}